:020000040800F2
:10000000A02C01209D010008CD31000851230008DB
:10001000C93100080D0B0008E93400080000000099
:10002000000000000000000000000000D5310008C2
:10003000B50C000800000000D131000805320008AE
:10004000B7010008B7010008B7010008B7010008B0
:10005000B7010008B7010008B7010008B7010008A0
:10006000B7010008B7010008B7010008B701000890
:10007000B7010008B7010008B10C0008B70100087B
:10008000B7010008B7010008E10A0008B70100083D
:10009000B7010008B7010008B7010008B701000860
:1000A000B7010008B7010008B7010008B701000850
:1000B000B701000861320008B7010008B701000865
:1000C000B7010008B7010008B7010008B701000830
:1000D000B7010008CD340008D9340008E534000821
:1000E000B90C0008B7010008B7010008B701000803
:1000F000B7010008B7010008B7010008B701000800
:10010000B7010008B7010008B7010008B7010008EF
:10011000B7010008B7010008B7010008B7010008DF
:10012000B7010008B7010008B7010008B7010008CF
:10013000B70100080000000000000000B70100083F
:10014000B7010008B7010008B7010008B7010008AF
:10015000B7010008B7010008B7010008B70100089F
:10016000B7010008B7010008B7010008B70100088F
:10017000B7010008B70100080000000000000000FF
:10018000B7010008B7010008DFF80CD000F06AFCE6
:1001900000480047014E0008A02C01200648804777
:1001A00006480047FEE7FEE7FEE7FEE7FEE7FEE75C
:1001B000FEE7FEE7FEE7FEE70932000889010008D6
:1001C000B5EEC00AF1EE10FA07D2DFED1E0AB4EE6A
:1001D000E00AF1EE10FAA8BF7047DFED1B0AB5EE9A
:1001E000C00A60EE200ABDEEE01A11EE100AF1EE30
:1001F00010FA38BF401E00EE100A1549F7EE001A3B
:10020000B8EEC00A30EEC00ADFED100A60EE200A38
:10021000BCEEE00A10EE100AC0F3080000EE100A6F
:1002200001EB8000B8EE400A90ED011A70EEC00AB2
:1002300090ED000A71EEE01A21EE800A00EE810ACC
:1002400070470000CD024CB483F9223E0000004408
:10025000F07A00082DE9F05F0546002092469B46A3
:1002600088460646814640241BE0284641464746CC
:10027000224600F010FB53465A46C01A914110D353
:1002800011461846224600F0F7FA2D1A67EB0108CE
:100290004F4622460120002100F0EEFA17EB00093C
:1002A0004E41201EA4F10104DFDC484631462A46B7
:1002B0004346BDE8F09F10B5431A934209D2831814
:1002C000881803E010F8011D03F8011D521EF9D231
:1002D00010BD40EA01039B0703D009E008C9121FC3
:1002E00008C0042AFAD203E011F8013B00F8013BF0
:1002F000521EF9D210BDD2B201E000F8012B491E06
:10030000FBD270470022F6E710B513460A460446B2
:100310001946FFF7F0FF204610BD421C10F8011BE4
:100320000029FBD1801A704710B54843044606F0F7
:10033000B7FE002805D00021002C02D0641E015514
:10034000FAE710BD2DE9FE4F804681EA0300C00F99
:100350000C46009021F0004123F00045B8EB02006C
:10036000A94105D24046214690461C460B4602460E
:1003700023F00040104347D0270DC7F30A00C3F312
:100380000A510290401A019040286BDAC3F313001F
:1003900040F4801B0098924620B10023D2EB030A60
:1003A00063EB0B0B01985946C0F14002504600F038
:1003B00063FA06460D4650465946019A00F07BFA0C
:1003C00010EB08006141002487EA115284EAE773C8
:1003D0001A4340D0009A62B3019A012A4FEA0752A9
:1003E00015DC001B61EB02014FF0004202EA0752EC
:1003F000CDE90042001C41F5801132462B4600F049
:10040000B2FA03B0BDE8F08F40462146F9E7001B81
:1004100061EB0201001C41F5801300185B412018BC
:10042000A2F5001747EB030140EAD570B6196D41FC
:1004300011E06D084FEA360645EAC0754FEA0752EB
:10044000001B61EB0201001C41F5801149084FEAD5
:1004500030000019514132462B4603B0BDE8F04F41
:1004600000F072BA0098012240000023D0EB020293
:1004700063EBE073009821464FEAE074B8EB0000AC
:1004800061EB0401E9E783F000435BE781F00041A1
:1004900058E72DE9FE4F81EA030404F0004421F0FF
:1004A000004100944FF0000B23F0004350EA010498
:1004B0005ED052EA03045BD0C3F30A54C1F30A5579
:1004C0002C44A4F2F3340194A0FB0254C1F31301B1
:1004D00041F48011C3F3130343F4801301FB02447E
:1004E00000FB034E840A970A44EA815447EA835783
:1004F000A4FB076802958D0A05FB07854FEA932C3C
:1005000004FB0C542705029D4FEA065847EA1637AC
:10051000B5EB08056EEB070C870E920E47EA8117C4
:1005200042EA8312A7FB0201B6EB0B0164EB000465
:100530002B0D43EA0C335E1844EB1C50DA4651464F
:10054000E7FB0201C5F313044FEA0B3343EA1453EC
:100550004FEA0432019C43EA0603A4F10C0402941E
:10056000009CCDE900B400F0FEF903B0BDE8F08FC7
:1005700000200146F9E72DE9F04D81EA030404F07B
:10058000004B21F0004514464FF0000A23F00041D3
:1005900050EA050220D054EA01021DD0C5F30A57E3
:1005A0000246C5F31303C1F31300C1F30A5640F426
:1005B000801543F48013A7EB0608101BD64608F2FB
:1005C000FD3873EB050002D308F1010801E0921831
:1005D0005B41B8F1000F03DA00200146BDE8F08D61
:1005E00000204FF48011064684460EE0171B73EB83
:1005F000050705D3121B63EB050306434CEA010C08
:1006000049084FEA300092185B4150EA0107EDD1EA
:1006100052EA030012D082EA040083EA050108438B
:1006200005D0101BAB4106D20122002306E00022B8
:100630004FF0004302E06FF0010253101AEB060086
:100640004CEB085110EB0A0041EB0B01BDE8F04DFB
:1006500000F07AB930B5041E71F1000404DB4FF0EC
:100660000044404264EB0101141E73F1000405DBF9
:100670001C464FF00043524263EB0403101A8B41B7
:1006800001D2012030BD002030BD30B5041E71F113
:10069000000404DB4FF00044404264EB0101141EEF
:1006A00073F1000405DB1C464FF00043524263EB3C
:1006B0000403801A994101D2012030BD002030BDD1
:1006C00030B5041E71F1000404DB4FF000444042D9
:1006D00064EB0101141E73F1000405DB1C464FF0AE
:1006E0000043524263EB040342404B401A4301D0A3
:1006F000002030BD012030BD30B4044696230800F0
:10070000214604D0B62330BC002200F0EFB82046CA
:100710000021F8E73EB5CA17CB0F002450405140E6
:10072000C0186141DA0740F233430094CDE9012358
:100730002246234600F017F903B030BD10B500F093
:10074000004420F00040C20DC0F3160040F4000049
:100750007F2A02DA0020014610BD0021962A03DC20
:10076000C2F19602D04002E0963A00F085F8002CE3
:10077000F2D00023D0EB030063EB010110BD20F0A9
:100780000040C20DC0F3160040F400007F2A02DAD8
:100790000020014670470021962A03DCC2F1960230
:1007A000D0407047963A00F067B8C1F30A5210B5CE
:1007B000C1F3130140F2FF3341F480119A4201DA90
:1007C000002010BD40F233439A42A2F2334203DCD0
:1007D000524200F060F810BD904010BD70B5C1F3FA
:1007E0000A5201F000450024C1F3130140F2FF3327
:1007F00041F480119A4202DA0020014670BD40F2B5
:1008000033439A42A2F2334203DC524200F043F8EF
:1008100001E000F031F82C43F0D00023D0EB0300CE
:1008200063EB010170BD00F0004230F000400AD0DF
:10083000C10D01F56071C0F3160042EA0151C20812
:1008400040071143704700200146704730B50B4602
:10085000014600202022012409E021FA02F59D42F0
:1008600005D303FA02F5491B04FA02F52844151EC4
:10087000A2F10102F1DC30BD202A04DB203A00FAAB
:1008800002F1002070479140C2F1200320FA03F3E7
:10089000194390407047202A04DB203A21FA02F0E5
:1008A0000021704721FA02F3D040C2F120029140AA
:1008B000084319467047202A06DBCB17203A41FA35
:1008C00002F043EAE07306E041FA02F3D040C2F1DD
:1008D000200291400843194670470029A8BF70477D
:1008E000401C490008BF20F00100704710B4B0FA66
:1008F00080FC00FA0CF050EA010404BF10BC704701
:1009000049B1CCF1200421FA04F411FA0CF118BF1A
:10091000012121430843A3EB0C01CB1D4FEA0061E9
:100920004FEA102042BF002010BC704700EBC350BC
:1009300010440029A4BF10BC7047401C490008BFE8
:1009400020F0010010BC704710B5141E73F10004B4
:1009500008DA401C41F1000192185B411A4301D1B1
:1009600020F0010010BD2DE9F04D92469B4611B1DB
:10097000B1FA81F202E0B0FA80F220329046FFF73D
:100980007BFF04460F4640EA0A0041EA0B0153464A
:100990005A46084313D0114653EA010019D0C8F152
:1009A00040025046FFF777FF05460E46504659462F
:1009B0004246FFF761FF084305D0012004E02046CE
:1009C0003946BDE8F08D0020054346EAE0762C4329
:1009D00037430A986305E40AA0EB08000022FD0AE9
:1009E00044EA47540A3002D500200146E9E70105F0
:1009F00010196941DDE9084500196941BDE8F04D6C
:100A0000A2E7C1F30A52C1F3130140F2FF3341F4EC
:100A100080119A4202DA00200146704740F23343C7
:100A20009A42A2F2334202DC5242FFF734BFFFF790
:100A300023BF000030B5041E71F1000404DB4FF049
:100A40000044404264EB0101141E73F1000405DB15
:100A50001C464FF00043524263EB0403994208BF27
:100A6000904230BD064C074D06E0E06840F00103BF
:100A700094E8070098471034AC42F6D3FFF788FBA0
:100A8000508401087084010870B58C1810F8015B5F
:100A900015F0070301D110F8013B2A1106D110F817
:100AA000012B03E010F8016B01F8016B5B1EF9D11B
:100AB0002B0705D40023521E0DD401F8013BFAE7A1
:100AC00010F8013BCB1A921C03E013F8015B01F80C
:100AD000015B521EF9D5A142D8D3002070BD0000A1
:100AE00080B541F6AC00C2F2000000F027F941F6F3
:100AF000F400C2F2000000F021F941F63C10C2F20D
:100B00000000BDE8804000F019B90000FEE70000D9
:100B100090ED020A90ED031A9FED062A9FED063A2A
:100B200020EE020A21EE031A31EE000A80ED030ADC
:100B3000704700BF17B7D13872F97F3F000000003F
:100B4000F0B581B041F29072C2F200021278002A30
:100B50001CBF01B0F0BDFFF7DDFD9FED1F0B53EC97
:100B6000102BFFF708FD9FED1E0B53EC102BFFF72A
:100B700090FC9FED1D0B53EC102BFFF7FCFC9FED41
:100B80001C0B054657EC106B32463B460C46FFF7F4
:100B900061FD9FED190B00281CBF3C46354657EC04
:100BA000106B2846214632463B46FFF76EFD002873
:100BB0001CBF3C46354628462146FFF7F6FD034656
:100BC00041F68410C2F200000021002201B0BDE80D
:100BD000F04000F053B900BF0000000000408F401B
:100BE000000000000000B0406666666666660A4067
:100BF00000000000000000000000000000FEAF4008
:100C0000F0B581B0FFF786FD9FED1F0B53EC102B65
:100C1000FFF7B1FC9FED1E0B53EC102BFFF739FCD7
:100C20009FED1D0B53EC102BFFF7A5FC9FED1C0B4C
:100C3000054657EC106B32463B460C46FFF70AFD63
:100C40009FED190B00281CBF3C46354657EC106B36
:100C50002846214632463B46FFF717FD00281CBFB9
:100C60003C46354628462146FFF79FFD034641F6A0
:100C70008410C2F200001021002201B0BDE8F04053
:100C800000F0FCB800BF00BF0000000000408F4033
:100C9000000000000000B0406666666666660A40B6
:100CA00000000000000000000000000000FEAF4057
:100CB000704700007047000080B54FF4805000F08E
:100CC00061F94FF4005000F05DF94FF4804000F0FE
:100CD00059F94FF40040BDE8804000F053B90000DE
:100CE0007047000070470000014641F6AC00C2F2B8
:100CF000000081420BD041F6F400C2F200008142B4
:100D000005D041F63C10C2F20000814209D180B505
:100D100000F010F841F62001C2F200010880BDE8A1
:100D2000804041F63800C2F2000002F09BBC000097
:100D3000704700000068C06C70470000B0B5044602
:100D4000006802684168920717D511F0200114D09D
:100D5000216CC90603D4216C41F4007121648168BF
:100D600011F0405F02D1217E00296CD02046FFF7B0
:100D7000BBFF20686FF012010160026841685207F2
:100D800014D511F0800111D0216CC90603D4216C57
:100D900041F400512164816811F4401F26D020469F
:100DA000FFF7A0FF20686FF00C0101600268416846
:100DB000D20706D011F040011CBF01685FEAC17183
:100DC00035D10268416892060FD511F0806108BFE5
:100DD000B0BD616C6FF0200541F0020161640560F7
:100DE0002046FFF7A5FF20680560B0BD816B11F4B8
:100DF000401F02D081684905D1D441684905CED44D
:100E0000816811F0405FCAD1217E0029C7D14168B5
:100E100021F080014160206C20F480502064206C1F
:100E2000C005BCD4206C40F001002064B7E7206C02
:100E300040F480302064204600F01EF820686FF0F7
:100E400001010160BDE7C16A11F4700F03D0816830
:100E500049053FF58BAF416821F020014160206CCE
:100E600020F480702064206CC0043FF57FAF206CBC
:100E700040F00100206479E77047000081B04FF036
:100E8000000CCDF800C000680029009000981044C4
:100E900014BF143008300090009900200B6001B09E
:100EA0007047000070B5866D044600F05BF994F859
:100EB0003510022920D105462068216C026822F0F5
:100EC00016020260426922F08002426109B9A16CF7
:100ED00019B1016821F008010160016821F00101E8
:100EE000016000BF0068C0070AD000F03BF9401B5A
:100EF00005280FD82068F5E78020606501200EE006
:100F0000E06D3F2101FA00F0B060012084F8350067
:100F1000002004E020206065032084F835000021D3
:100F200084F8341070BD000090F83510022909D102
:100F3000052180F835100068016821F00101016089
:100F4000002070478021416501207047B0F5805F27
:100F500018BF7047B0B540F60000C4F2020001218E
:100F600000220124002500F0F7F841F29870C2F247
:100F70000000056041F66840C2F200000460BDE870
:100F8000B040704743F61441C4F201010A680242BE
:100F900014BF08607047FFF7D9BF00002DE9F04F7C
:100FA00082B000F13E4241F6004502F1FF77C4F203
:100FB000020508224FEAB726A84208BF0722072EDB
:100FC00038BF4FEAB7224FF0010E002400274FF040
:100FD0000008009208E000BF023708F10108202F46
:100FE00004F1040400F0B4800E680EFA08F916EA61
:100FF000090FF1D0D1F804A00AF0030BABF1010600
:10100000012E19D80322866802FA07FECA6826EA6A
:101010000E06BA40324382604268CAF3001522EAE3
:10102000090205FA08F54FEA480C6FEA0E064FF080
:10103000010E2A4342600BE00322BA40D643BBF1C3
:10104000030FBC4604D1BC464FF0030B24E000BFA5
:10105000C2688D68324005FA0CF52A43BBF1020FD5
:10106000C26019D16FF0030202EA5802024404F090
:101070001C030F25D2F820E005FA03FA0D692EEAC9
:101080000A0E05FA03F343EA0E031362D1F804A033
:101090004FF0010E0AF0030B02680BFA0CF332401A
:1010A0001A431AF4403F026096D0002243F64403EC
:1010B0000192C4F202031A6843F6004C42F48042E3
:1010C0001A601A68C4F2010C02F480420192019A7B
:1010D00028F003024FF6084A6244CFF6FF7A52F82E
:1010E0000A3004F00C060F25B540AB43009D05FA0D
:1010F00006F6334342F80A30DCF800204B6842EA37
:101100000906DD0358BF22EA0906CCF80060DCF8C6
:1011100004209D0342EA090658BF22EA0906CCF8DA
:101120000460DCF80820DD0242EA090643F60C45BB
:1011300058BF22EA0906CCF80860C4F201052A6803
:101140009B0242EA090658BF22EA09062E6043E7DD
:1011500002B0BDE8F08F0000002A08BF09048161D9
:101160007047000041F69840C2F2000000687047E6
:1011700041F2887041F69841C2F20000C2F20001CB
:1011800000780A68104408607047000080B543F694
:101190000040C4F20200016841F40071016001687E
:1011A00041F480610160016841F4807101600320B5
:1011B00000F088F8002000F005F800F02BF800207F
:1011C00080BD0000B0B541F28872C2F2000240F268
:1011D0001C711278C2F200014FF47A730968B3FBF4
:1011E000F2F20446B1FBF2F1084600F013FB0F2CBB
:1011F0004FF001050CD858B94FF0FF3021460022BE
:10120000002500F033F841F28C70C2F20000046057
:101210002846B0BD82B0002043F640010190C4F2E0
:1012200002014A6842F480424A604A6802F48042FD
:101230000192019A0090086840F0805008600868A8
:1012400000F080500090009802B07047002848BF1E
:10125000704700F01F01012202FA01F14EF2001264
:101260004009CEF2000242F82010704710B54EF649
:101270000C5CCEF2000CDCF80030C3F3022E8EF0D2
:101280000704042C28BF0424BEF103034FF0FF3EE3
:101290000EFA04F438BF0023A14399400EFA03F379
:1012A0009A43114300F00F02043A624409010C32E0
:1012B00000F16043B0F1FF3FC8BF03F56442117015
:1012C00010BD00004EF60C51CEF200010A684FF638
:1012D000FF031A4060F30A2242F0806040F0FD7084
:1012E000086070472DE9F041002800F08B8043F63C
:1012F0000808C4F202080446D8F8F8030D4600F0C6
:101300000F00884207D288F8F853D8F8F80300F0A5
:101310000F00A84276D12068810717D5410705D56F
:10132000D8F8001041F4E051C8F80010010705D5C5
:10133000D8F8001041F46041C8F80010D8F8001047
:10134000A26821F0F0011143C8F80010C0073FD196
:10135000D8F8F80300F00F00A84207D988F8F8532E
:10136000D8F8F80300F00F00A8424BD120684107DD
:1013700007D5D8F80010E26821F4E0511143C8F80D
:101380000010000708D5D8F80000216920F460405B
:1013900040EAC100C8F8000000F054F8D8F8001086
:1013A0004BF2B842C1F30311C0F60002515C40F2A7
:1013B0001C7220FA01F141F28C70C2F20000006848
:1013C000C2F200021160FFF7FDFE0020BDE8F081CF
:1013D0006068811E022907D258F8081C89015CBF89
:1013E0000120BDE8F08110E0012807D158F8081C61
:1013F00089035CBF0120BDE8F08106E058F8081CB5
:10140000890702D40120BDE8F081D8F8001021F04E
:1014100003010843C8F80000FFF7A4FE064641F2A6
:10142000883700BFD8F80000616800F00C00B0EB0E
:10143000810F8DD0FFF796FE801BB842F2D90320B2
:10144000BDE8F08110B543F60404C4F202046068FC
:1014500000F00C0142F200400829C0F2F40007D06D
:10146000042918BF10BD41F20020C0F27A0010BD5F
:10147000216801F03F02216823684902C3F3881103
:1014800005D4A1FB00010023FEF7E4FE06E041F2D3
:101490000020C0F27A004843B0FBF2F0216802223B
:1014A000C1F3014102EB4101B0FBF1F010BD0000BE
:1014B0002DE9F04182B0002869D00446007843F657
:1014C0000006C007C4F202060BD0B06800F00C00A2
:1014D000042840F09C803068800302D560680028B2
:1014E00055D0207880071AD5B06810F00C0F09D0BD
:1014F000B06800F00C00082840F0A380706840023B
:1015000000F19F803068800702D5E06801283ED155
:101510003068216920F0F80040EAC100306020788E
:10152000000738D4207840074BD4A5695DB3B06874
:1015300000F00C00082840F0B780012D27D070681B
:10154000E16900F480028A4221D1216A00F03F0261
:101550008A421CD147F6C071626A0140B1EB821F1A
:1015600015D1A26A0023CFF6FF7303EBC23200F459
:1015700040316FF30F02914209D1E16A00F07060CF
:10158000B0EB016F03D1002002B0BDE8F081012073
:1015900002B0BDE8F0816069002840F20000C4F2AA
:1015A000472071D00121C0F8801EFFF7DBFD054602
:1015B000706F8007B6D4FFF7D5FD401B0228F7D91E
:1015C000D7E0306C10F080580AD100200190306CC8
:1015D00040F080503064306C00F0805001900198F1
:1015E00047F20007C4F200073868C0053ED43868E7
:1015F00040F480703860FFF7B5FD05463868C005D7
:1016000034D4FFF7AFFD401B0228F7D9B1E0B06832
:1016100000F00C00082803D1706840023FF55BAF72
:101620006068B0F5803F07D0B0F5A02F40F08B8008
:10163000306840F480203060306840F480303060A2
:101640008BE0E068002851D00020C4F2472001213F
:101650000160FFF787FD0546306880073FF558AF0A
:10166000FFF780FD401B0228F6D982E0A068012820
:1016700005D005284ED1306F40F004003067306F40
:1016800040F0010030674FE00021C0F8801EFFF7F6
:1016900069FD0546706F80077FF544AFFFF762FD77
:1016A000401B0228F6D964E00027C4F24727002037
:1016B0003866FFF757FD022D05460BD130688001D3
:1016C0005BD5FFF74FFD401B02284FF00300F5D913
:1016D0005AE700BF306880017FF555AFFFF742FD44
:1016E000401B02284FF00300F4D94DE70020C4F25C
:1016F000472000210160FFF735FD0546306880076F
:101700007FF50DAFFFF72EFD401B02284FF00300C1
:10171000F4D939E7316F002821F001013167316FC9
:1017200021F0040131674BD0FFF71CFD054641F263
:10173000883700BF306F800753D4FFF713FD401B7D
:10174000B842F7D915E03168002821F480313160C2
:10175000316821F4802131604CD0FFF703FD05464C
:10176000306880033FF5BDAEFFF7FCFC401B6428EA
:10177000F6D9032002B0BDE8F08104F11C052FCD9D
:1017800008430021CFF6FF7140EA821001EBC3311C
:101790006FF30F0140EA056008437060012038666E
:1017A000FFF7E0FC044600BF306880013FF5EBAE78
:1017B000FFF7D8FC001B02284FF00300F4D9E3E642
:1017C000FFF7D0FC054641F2883700BF306F800735
:1017D00007D5FFF7C7FC401BB8424FF00300F5D90F
:1017E000D2E6B8F1000F7FF4A0AE306C20F080504C
:1017F00030649AE6FFF7B6FC054600BF3068800308
:101800007FF56FAEFFF7AEFC401B64284FF003007E
:10181000F4D9B9E6411E0020B0EB116F1CBF0120C6
:1018200070474EF21002CEF2000251604EF6235184
:10183000CEF20001F0230B70072190601160704719
:10184000704700007047000010B590F83C20012A56
:101850004FF002024FD080F83D200268D2F804E039
:10186000D2F808C00C682EF07003234341F2FF74D5
:10187000C4F20004A24253600DDC40F2FF73C4F2D4
:1018800000039A4215DCB2F1804F29D040F20043A8
:10189000C4F2000322E040F2FF33C4F201039A4293
:1018A00012DC41F60003C4F200039A4218D0002370
:1018B00012E040F60003C4F200039A4210D040F652
:1018C0000043C4F2000309E044F20003C4F2010340
:1018D0009A4205D040F20043C4F201039A4204D177
:1018E00049682CF08003194391600121002280F89F
:1018F0003D1080F83C20104610BD0000002804BFB9
:101900000120704710B5044690F83D0028B900202A
:1019100084F83C00204600F01FF8022084F83D00C7
:101920002068211D01F0A2FC012084F8460084F803
:101930003E0084F83F0084F8400084F8410084F8B9
:10194000420084F8430084F8440084F8450084F899
:101950003D00002010BD000080B582B0006840F25C
:101960000041C4F2000188421CBF02B080BD0020CB
:10197000019043F64000C4F202000168002241F0E9
:10198000020101600068012100F00200019001984D
:101990001D20FFF76BFC1D2002B0BDE88040FFF763
:1019A00055BC000090F83D1001291CBF0120704774
:1019B000022180F83D10006841F2FF72C168C4F254
:1019C0000002904241F00101C1600DDC40F2FF7164
:1019D000C4F20001884215DCB0F1804F29D040F2FA
:1019E0000041C4F2000122E040F2FF31C4F20101E3
:1019F000884212DC41F60001C4F20001884218D08E
:101A0000002112E040F60001C4F20001884210D02B
:101A100040F60041C4F2000109E044F20001C4F2C2
:101A20000101884205D040F20041C4F20101884220
:101A300006D1816801F00701062904BF0020704724
:101A4000016841F0010101600020704780B590F805
:101A50003C20012A4FF0020200F0BF8080F83D20B8
:101A6000D0F800C04FF67772DCF8083023EA0202A3
:101A7000CCF808200B684F2B28DC1F2B43DD202BD4
:101A800044D0302B42D0402B40F0A980D1F804E064
:101A9000C968DCF82030DCF8202022F00102CCF804
:101AA0002020DCF8182022F0F00242EA011123F095
:101AB0000A0242EA0E02CCF81810CCF82020DCF81A
:101AC000081041F0470121F030017DE06F2B25DD4A
:101AD000B3F5005F46D0B3F5805F77D0702B7ED131
:101AE000D1E901E3C968DCF8082043EA0E0322F4D7
:101AF0007F4243EA01211143CCF80810DCF80810BA
:101B000041F0770160E00BB1102B68D1DCF80810D0
:101B100021F07001194341F0070155E0502B34D0FA
:101B2000602B5CD1D1F804E0C968DCF8203023F0E8
:101B30001003CCF82030DCF81830DCF8202023F437
:101B4000704322F0A00243EA013142EA0E12CCF8BF
:101B50001810CCF82020DCF8081041F0670121F0C3
:101B6000100131E0D1E901E3C968DCF8082043EA5B
:101B70000E0322F47F4243EA01211143CCF80810FE
:101B8000DCF8081041F480411EE0D1F804E0C96897
:101B9000DCF82030DCF8202022F00102CCF82020F4
:101BA000DCF8182022F0F00242EA011123F00A02C8
:101BB00042EA0E02CCF81810CCF82020DCF808100D
:101BC00041F0570121F02001CCF80810002201213A
:101BD00080F83D10002180F83C10104680BD0122A5
:101BE000F5E700007047000010B501680446086979
:101BF000800744BFC8685FEA807038D4086940072E
:101C000044BFC8685FEA40703DD40869000744BF1C
:101C1000C8685FEA007043D40869C00644BFC8685A
:101C20005FEAC06048D40869C0071CBFC8685FEAA3
:101C3000C0704ED10869000644BFC8685FEA006002
:101C40004FD40869400644BFC8685FEA406050D47A
:101C50000869800646BFC8685FEA806010BD6FF003
:101C6000200220460A61BDE81040FFF7EBBD6FF08F
:101C700002000861012020778869800741D0204652
:101C8000FFF7B0FF43E06FF0040008610220207707
:101C9000886910F4407F3ED02046FFF7A3FF40E064
:101CA0006FF00800086104202077C86980073CD0E5
:101CB0002046FFF797FF3EE06FF010000861082014
:101CC0002077C86910F4407F39D02046FFF78AFF9B
:101CD0003BE06FF001000861204600F03FF821680A
:101CE000A8E76FF0800008612046FFF7A9FD216892
:101CF000A7E76FF040000861204600F043F8216834
:101D0000A6E7204600F026F8204600F025F82168D6
:101D10000020207772E7204600F01CF8204600F0F3
:101D20001BF82168002020776FE7204600F012F8AA
:101D3000204600F011F82168002020776CE720464B
:101D400000F008F8204600F007F82168002020770E
:101D500069E70000704700007047000041F69811E5
:101D6000C2F20001884218BF704741F69000C2F2EB
:101D70000000D0E90012013142F10002C0E9001276
:101D80007047000070470000704700007047000077
:101D9000B0B582B0044600680168C368426901F0CA
:101DA0002F05202D03F0200506D12DB1204602B0CD
:101DB000BDE8B04001F0F2BA5FEA017C1EBF02F05C
:101DC000010E03F4907212EB0E0255D1226B012A20
:101DD00005D111F0100218BF13F0100236D10A0617
:101DE00022D513F080021FD094F83D10212941D153
:101DF000A168B1F5805F03D12169002900F06A82F2
:101E0000216A4A1C226209784160E18C01390A0486
:101E1000E1842FD1C16821F08001C160C16841F027
:101E20004001C16002B0B0BD490623D513F04001A6
:101E300020D0C16821F04001C1602021204684F8F3
:101E40003D1002B0BDE8B04000F080BA0021019121
:101E5000016801914168019101994169490600F1C8
:101E60008B80A18DE28DE38D002B1CBF891A5FEA68
:101E700001420CD102B0B0BDCA0718BF13F4807282
:101E800040F031814A0700F1348139E1206850E89F
:101E9000030F226820F4907042E80303DBB120684E
:101EA00050E8030F226820F4907042E8030393B1D6
:101EB000206850E8030F226820F4907042E8030382
:101EC0004BB1206850E8030F226820F4907042E87C
:101ED0000303002BDAD1206850E8050F226820F0B8
:101EE000010042E80503DBB1206850E8050F2268D5
:101EF00020F0010042E8050393B1206850E8050F87
:101F0000226820F0010042E805034BB1206850E848
:101F1000050F226820F0010042E80503002BDAD10A
:101F2000202084F83E0000202063206850E8030F42
:101F3000226820F0100042E80303DBB1206850E87B
:101F4000030F226820F0100042E8030393B12068D9
:101F500050E8030F226820F0100042E803034BB161
:101F6000206850E8030F226820F0100042E80303C5
:101F7000002BDAD189B2B0E0A26B11684B689DB238
:101F8000002D3FF477AFA18D8D42BFF473AFE38591
:101F9000D269B2F5807F00F09D8050E8030F216880
:101FA00020F4807041E80302E2B1206850E8030F9A
:101FB000216820F4807041E803029AB1206850E85B
:101FC000030F216820F4807041E8030252B12068B9
:101FD00050E8030F216820F4807041E803020AB141
:101FE0002068DAE7206850E8050F216820F001003A
:101FF00041E80502DAB1206850E8050F216820F0B9
:10200000010041E8050292B1206850E8050F2168FF
:1020100020F0010041E805024AB1206850E8050FB0
:10202000216820F0010041E80502002ADAD1206889
:1020300050E8050F216820F0400041E80502DAB1C0
:10204000206850E8050F216820F0400041E80502B3
:1020500092B1206850E8050F216820F0400041E867
:1020600005024AB1206850E8050F216820F04000C1
:1020700041E80502002ADAD1202084F83E00002041
:102080002063206850E8030F216820F0100041E829
:102090000302DAB1206850E8030F216820F0100035
:1020A00041E8030292B1206850E8030F216820F054
:1020B000100041E803024AB1206850E8030F21688C
:1020C00020F0100041E80302002ADAD1A06BFEF7ED
:1020D000E9FEA18DE08D081A81B2204602B0BDE86C
:1020E000B040FFF751BE226C42F0010222644A0761
:1020F00006D5BEF1000F03D0226C42F0020222642A
:102100008A0706D5BEF1000F03D0226C42F004020C
:102110002264BCF1000F06D555EA0E0203D0226CF2
:1021200042F008022264226C002A3FF4A3AE11F0B0
:10213000200118BF002D03D0204601F02FF92068A0
:102140004169226C01F0400102F00802891800F098
:10215000A28000BF50E8030F216820F4907041E88E
:102160000302C2B3206850E8030F216820F4907086
:1021700041E803027AB3206850E8030F216820F495
:10218000907041E8030232B3206850E8030F2168E1
:1021900020F4907041E80302EAB12068DAE700BF5A
:1021A000206850E8050F216820F0010041E8050291
:1021B000DAB1206850E8050F216820F0010041E8FD
:1021C000050292B1206850E8050F216820F0010057
:1021D00041E805024AB1206850E8050F216820F067
:1021E000010041E80502002ADAD1206B012824D140
:1021F000206850E8030F216820F0100041E8030236
:10220000DAB1206850E8030F216820F0100041E89F
:10221000030292B1206850E8030F216820F01000FB
:1022200041E803024AB1206850E8030F216820F01A
:10223000100041E80302002ADAD1202084F83E0091
:10224000002020632068416949063DD550E8050F0C
:10225000216820F0400041E805021AB3206850E8E8
:10226000050F216820F0400041E80502D2B1206846
:1022700050E8050F216820F0400041E805028AB1CE
:10228000206850E8050F216820F0400041E8050271
:1022900042B12068DAE72046FFF778FD002020648D
:1022A00002B0B0BDA06B78B143F29131C0F600012D
:1022B0000165FEF739FE00283FF4DCADA06B016D2F
:1022C00002B0BDE8B0400847204602B0BDE8B040CB
:1022D000FFF75CBD216A31F8022B6FF35F22426089
:1022E000216292E570B541F62425C2F2000504464C
:1022F000A8420DD041F6B025C2F20005AC4207D08D
:1023000041F63C30C2F200002546844218BF002549
:10231000B5F886603F2E07D305F1450005F146016B
:102320004022FDF7C8FF08E0701CA5F8860028448D
:10233000002180F84510B5F88660A81900F1450124
:1023400020460122BDE8704001F0A6B870470000A9
:10235000FEE700002DE9F04F84B0D0E900C20CEB9D
:102360004209B9F1200F06D90FF2CC3004B0BDE814
:10237000F04F05F075BBB9F1000F4FEA4208039228
:1023800000F0D1800CEB08020569013A032A09F03C
:10239000030E1AD20024BEF1000F00F0C48005EB3A
:1023A000840696ED001A631CB4EE401AF1EE10FAA2
:1023B00078DC05EB830797ED001AB4EE401AF1EED6
:1023C00010FA6FDDB7EE001A6EE09FEDD91A29F012
:1023D00003030027B7EE002A002408E0B0EE413ADC
:1023E0000434A34207F1100786ED033AD3D0EA196B
:1023F00092ED003AB4EE403AF1EE10FA02DDB0EEA2
:10240000413A0AE092ED013AB4EE403AB0EE423A77
:10241000F1EE10FAD8BFB0EE413ACE1986ED003A8F
:1024200092ED013AB4EE403AF1EE10FA02DDB0EE70
:10243000413A0AE092ED023AB4EE403AB0EE423A46
:10244000F1EE10FAD8BFB0EE413A86ED013A92EDC6
:10245000023AB4EE403AF1EE10FA03DDB0EE413A42
:102460000BE000BF92ED033AB4EE403AB0EE423AD0
:10247000F1EE10FAD8BFB0EE413A86ED023A92ED95
:10248000033AB4EE403AF1EE10FAA7DC92ED043ACA
:10249000B4EE403AB0EE423AF1EE10FAD8BFB0EEE8
:1024A000413A9DE79FEDA21A01EB8407BEF1010FAF
:1024B00087ED001A37D005EB830797ED001A023439
:1024C000B4EE401AF1EE10FA0BDC05EB840797ED41
:1024D000001AB4EE401AF1EE10FA02DDB7EE001A5F
:1024E00001E09FED931A01EB8303BEF1020F83ED30
:1024F000001A18D005EB840393ED001AB4EE401ACD
:10250000F1EE10FA09DC96ED031AB4EE401AF1EE82
:1025100010FA02DDB7EE001A01E09FED851A01EB1B
:10252000840282ED001A0290039E002E00F0FD80CE
:102530000CEB08009FED7E1A9FED7E2A821EA0F113
:10254000010B4FF0010A4FF00008CDE900200EE02A
:1025500033EE063A01EB870080ED003AB2450AF10E
:10256000010A08F10108ABF1010B00F0DE80B9F1BE
:102570000109F3D002980269009840454CD1002728
:10258000019B6FEA08001844039E10F00100E5D09B
:1025900007EB0A0002EB800002EB870390ED003AA4
:1025A00093ED004A33EE445A15EE103A23F00043FF
:1025B00003EE103AB4EE423AF1EE10FAB0EE413AC0
:1025C00009DD30EE443A83EE053A01EB870393EDE3
:1025D000004A23EE043A90ED014A781C02EB800297
:1025E00092ED005A34EE455A15EE102A22F00042C0
:1025F00006EE102AB4EE426AF1EE10FAB0EE416A2D
:10260000A6DD34EE404A84EE054A01EB800090EDF1
:10261000005A24EE056A9BE72BF0010302EB8805C4
:102620000024002709E000BF023733EE063ABB4220
:1026300004F108048CED013AA2D005EB040E101948
:102640009EED013A90ED004A33EE445A15EE106AC1
:1026500026F0004603EE106AB4EE423AF1EE10FAAC
:10266000B0EE413A08DD30EE443A83EE053A0E19F9
:1026700096ED004A23EE043A9EED024A90ED015A8F
:1026800034EE455A15EE106A26F0004606EE106A42
:10269000B4EE426AF1EE10FAB0EE416A08DD34EEB3
:1026A000404A84EE054A0E1996ED015A24EE056A59
:1026B00033EE063A01EB040C8CED003A9EED023A43
:1026C00090ED014A33EE445A15EE106A26F00046AA
:1026D00003EE106AB4EE423AF1EE10FAB0EE413A6F
:1026E00007DD30EE443A83EE053A9CED014A23EED5
:1026F000043A9EED034A90ED025A34EE455A15EE27
:10270000100A20F0004006EE100AB4EE426AF1EE24
:1027100010FAB0EE416A87DD34EE404A84EE054A95
:102720009CED025A24EE056A7EE704B0BDE8F08F06
:1027300000000000BD378635546865206E756D62F7
:102740006572206F662062617365732065786365CA
:1027500065647320746865206D6178696D756D209E
:102760006C696D69742E00002DE9F04F0E6896FAC1
:10277000A6F2B2FA82F236FA02F364D04FF0010800
:102780004FF0030C0CE000BFD1E900630768AB40D9
:1027900007EA0A073B430360013236FA02F352D0DC
:1027A00008FA02F316EA0304F6D0D1F804E0AEF119
:1027B0000103022B1CD294FAA4F5B5FA85F6D0F8E1
:1027C00008907500D1E902AB0CFA05F329EA030978
:1027D0000AFA05F747EA0907876047686FEA030ABC
:1027E00027EA04090BFB04F747EA0907476008E0FA
:1027F00094FAA4F3B3FA83F675000CFA05F36FEAC2
:10280000030A0F69C368AF4003EA0A033B43BEF102
:10281000020FC360B8D1E3B2240AD1F814E094FAED
:10282000A4F4002B08BFB4FA84F64FF0200308BFCD
:102830002423C458B6000F27B740BC430EFA06F74E
:102840002743C750A0E70020BDE8F08F80B543F6CE
:10285000040EC4F2020EDEF8042002F00C0342F271
:102860000042082BC0F2F40206D0042B22D141F220
:102870000022C0F27A021DE0DEF80030DEF800C06F
:102880005B0241F20023C0F27A0358BF13460CF0FA
:102890003F0CDEF80020B3FBFCFCDEF80030C2F396
:1028A000881202FB0CFCC3F30143022202EB430239
:1028B000BCFBF2F20260DEF804304BF2B841C3F325
:1028C0000313C0F60001C95C4BF2C84322FA01F1C0
:1028D0004160DEF80420C0F60003C2F382229A5C55
:1028E00021FA02F28260DEF80420C2F342329A5CDE
:1028F000D140C16080BD000070B584B00446C0689E
:1029000080047BD4E0680D4649F20C618843D5E928
:10291000011E05F10C0C9CE848100843AA691843F5
:1029200030431043E06020696E4620F4405040EA96
:102930000E002061606920F4407040EA0C00606184
:102940003046FFF783FF44F6FF70C4F20000844274
:102950004FF0010013DC44F20041C4F200018C424C
:1029600022D044F60001C4F200018C421CD044F68F
:102970000041C4F200018C4216D004B070BD45F293
:102980000001C4F200018C420ED041F20041C4F2B9
:1029900001018C4205D041F20001C4F201018C42D8
:1029A000EBD106F10C0001E006F10800006828B345
:1029B0002B681BB3A9691922B1F5004FA0FB0201D6
:1029C0001FD15A00DB0FFDF745FC48F21F51C5F23D
:1029D000EB11A0FB01235A096FF0630302FB030014
:1029E000322303EBC000A0FB01014FF4F87000EAB2
:1029F000111000EB0210C1F342111DE0012004B0E0
:102A000070BD9A009B0FFDF725FC48F21F51C5F2DF
:102A1000EB11A0FB01235A096FF0630302FB0300D3
:102A2000322303EB0010A0FB0101F02000EA51105B
:102A300000EB0210C1F343114FF6F072104008444E
:102A4000A060002004B070BD2DE9F04F81B02DEDE5
:102A5000068B84B000280192029100F042818346E7
:102A60000298002800F03D810198002800F039818B
:102A7000DBF80460002E40F33D810198B100FDF7C2
:102A800041FCDBF800509FED9E8A4FF0000804E007
:102A900008F10108B04580F22D81012DF8DB019885
:102AA000002400EB880003900EE000BF03988AED3D
:102AB0000E9A90ED000A39EE000A80ED000A01340A
:102AC000DBF80460AC42E3DADBF80C0006FB0481BF
:102AD00050F821A0BAF1000F22D00298DAF8009045
:102AE00000EB840090ED00AAB9F1000F20DD0AF19F
:102AF00010000AF10C014FEA8902FDF7DCFBDAF85D
:102B000008208AED03AA92ED000AA9F10101032928
:102B100020EE0A9A18D2012319F0030047D171E080
:102B200078A02146424604F0C9F8DBF80050C6E719
:102B3000B0EE489A8AED03AAB8D4DAF8080090ED0E
:102B4000000A20EE0A9AB1E7AC4629F00300002300
:102B5000002600BF0AEB0307D51897ED040A95ED90
:102B6000014A97ED051A95ED025A97ED062A95ED63
:102B7000036A24EE000A97ED073A95ED047A30EEE9
:102B8000090A25EE011A31EE000A26EE021A31EE8C
:102B9000000A27EE031A043631EE009AB04203F120
:102BA0001003D7D1731C654619F003002AD00AEB35
:102BB000830696ED030A02EB830696ED001A0128C0
:102BC00021EE000A30EE099A1CD05E1C0AEB860743
:102BD00097ED030A02EB860797ED001A022821EE13
:102BE000000A30EE099A0DD002330AEB830702EB9C
:102BF000830297ED030A92ED001A21EE000A30EEEF
:102C0000099A00BFB9F1010FFFF650AFDAF80420BE
:102C1000032902D2012180BB54E0AC4629F0030114
:102C200000230026D7180AEB030597ED010A95ED5E
:102C30000E4A97ED021A95ED0F5A97ED032A95ED7E
:102C4000106A20EE040A97ED043A95ED117A39EEF8
:102C5000400A21EE051A30EE410A22EE061A30EE45
:102C6000410A23EE071A043630EE419AB14203F1CD
:102C70001003D7D1711C654620B302EB81030AEB28
:102C8000810693ED000A96ED0D1A012820EE010A47
:102C900039EE409A16D0013102EB810292ED000A22
:102CA00096ED0E1A022820EE010A39EE409A09D05C
:102CB0000AEB810093ED020A90ED0E1A20EE010A54
:102CC00039EE409AB9F1020FFFF6F0AE6FF0030251
:102CD0000AF13C000AF1380102EB8902FDF7EBFA38
:102CE000E4E613A004B0BDEC068B01B0BDE8F04FE4
:102CF00004F0B6BE04B0BDEC068B01B0BDE8F08FA9
:102D0000000000004949522066696C7465722061B8
:102D10007420696E7075742025642C206F75747032
:102D20007574202564206973204E554C4C2E0A0082
:102D3000496E76616C6964206C617965722C2069DA
:102D40006E707574732C206F72206F75747075744B
:102D5000732E0000002918BF002A02D17DA004F0C4
:102D60007FBE2DE9F04F81B02DED028BA4B04568F8
:102D70000746002D009200F0E58000988B46A900E0
:102D80001E46FDF7BFFA38680DF1100CACF11001CA
:102D90009FED6F8A019100240146029605E000BF75
:102DA00000210134AC4280F0CD800029F8D0009998
:102DB0004FF0000A01EB840803940DE0B0EE480ADE
:102DC00098ED001A0AF1010A30EE010A88ED000AB6
:102DD0007D6882450146E4D2F96805FB0A425BF84A
:102DE0002A9051F8225029F0004100EE101A4EB3FB
:102DF000A9694B1E01EE103AB8EEC11A20EE010A85
:102E0000BDEEC01A11EE102A511C9942D6DAEB69B8
:102E1000B8EEC11A03EB820203EB810192ED002AA6
:102E200091ED003A30EE410A33EE421A20EE010AEB
:102E300030EE020A09F0004110EE102A114300EEB4
:102E4000101ABDE7284661466446FFF783FAD5E9C4
:102E50000001091807D068694A1E032A07D2002218
:102E6000B0EE480A33E0A446039C002063E021F062
:102E70000302019EA0F1100553420022B0EE480A61
:102E800096ED041A95ED045A96ED052A95ED056A1E
:102E900096ED063A95ED067A21EE051A96ED074A6B
:102EA000D5ED070A31EE000A22EE061A31EE000ACD
:102EB00023EE071A31EE000A24EE201A043A1036E7
:102EC000103531EE000A9342DAD1029E5242A446F6
:102ED000039C11F003012AD00CEB820393ED001A3E
:102EE00000EB820393ED002A012921EE021A31EE54
:102EF000000A1CD0531C0CEB830600EB830396EDF9
:102F0000001A93ED002A022921EE021A31EE000A7E
:102F10000CD0911C0CEB810200EB810092ED001AA9
:102F200090ED002A21EE021A31EE000A029E10EE08
:102F3000100A20F0004009F000410144386800EE1A
:102F4000101A3DE724B0BDEC028B01B0BDE8F08F54
:102F500000000000496E76616C696420696E7075CE
:102F60007473206F72206F7574707574732E000007
:102F70002DE9F04186B0002643F630000596009614
:102F8000C4F20200016840F6000441F080010160D3
:102F90000168C4F2020401F08001009100990096DA
:102FA0000168002241F0040101600168012701F07D
:102FB0000401009100990096016841F0010101604F
:102FC000016801F00101009100990096016841F04B
:102FD000020101600068012100F0020000900098E9
:102FE0002046FEF7B9F82046022101224FF00208E0
:102FF000FEF7B2F801AD20462946CDE90177CDE9CB
:103000000366FDF7CBFF20462946CDE90187CDE9D0
:103010000376FDF7C3FF4FF4704001904FF40410A6
:10302000CDE90207A4F580602946FDF7B7FF282007
:1030300000210022FEF71AF92820FEF707F906B052
:10304000BDE8F08180B586B041F6981040F20042AC
:103050000021C2F20000C4F20002532340F2E73C18
:103060000591CDE90311CDE90011C0E90023C0E9C4
:10307000021C01618161FEF741FC002818BFFDF7C9
:103080002FFE4FF48050029041F69810C2F20000DB
:1030900002A9FEF7DBFC002818BFFDF721FE41F670
:1030A0009810C2F200006946FEF7CEFB002818BF58
:1030B000FDF716FE06B080BDB0B58EB043F6300009
:1030C000C4F20200016944F60C0441F4802101615C
:1030D0000169C4F2000401F4802107910799016895
:1030E000002541F002010160006801A900F0020022
:1030F000079007984FF4406001900220029003204F
:1031000003900720069004F5DC3000F57D70CDE9D2
:103110000455FFF729FB46F25800C4F2020001688B
:10312000042262F35B6101600168012262F387118E
:103130000160016821F440310160016821F490715F
:103140000160016821F400710160016841F480614F
:103150000160016821F4C0510160016821F4C0419F
:103160000160416921F0040141614EF60C50CEF23C
:10317000000000684EF22740CEF2000005704EF2CB
:103180000410CEF200008021016048F28040C0F2BD
:103190001E00CDE907050C20CDE90B05A4F10C00BC
:1031A00007A9CDE909550D95FFF7A6FB606820F446
:1031B00090406060A06820F02A00A060206840F481
:1031C000005020600EB0B0BDFEE700007047000068
:1031D000704700007047000041F228310020C2F221
:1031E000000100228B183032B2F58A6F58611861E5
:1031F000D8609860D862986258621862F2D17047BD
:103200002E207047FDF7B4BF4EF68850CEF2000076
:1032100001684FF0000C41F47001016043F60001B9
:10322000C4F202010A6842F001020A60C1F808C053
:103230000B684FF6FF72CFF6F6621A400A6043F24F
:103240001002C2F200424A600A6822F480220A6038
:10325000C1F80CC04FF0006140F8801C70470000BE
:1032600041F69810C2F20000FEF7BEBC10B540F661
:10327000FF3E0368C4F2000E40F2004C7045C4F2F9
:10328000010C0FDCB0F1804F19D040F20042C4F2C3
:103290000002904213D040F60002C4F200029042B5
:1032A0000DD010E040F60042C4F20002904206D079
:1032B000604504D00022C4F20102904203D14A6862
:1032C00023F07003134341F6FF72C4F200029042F0
:1032D0000DDC70451FDCB0F1804F41D040F2004260
:1032E000C4F2000290423BD040F6000221E043F6D7
:1032F000FF72C4F20102904220DC42F20002C4F2EA
:10330000000290422CD00022C4F20102904227D049
:10331000604525D028E040F60042C4F20002904209
:103320001ED041F60002C4F20002904218D041F6CD
:103330000042C4F20002904212D015E044F20002B2
:10334000C4F2010290420BD044F60002C4F2010222
:10335000904205D044F20042C4F20102904203D1EF
:10336000CA6823F44073134323F080024B69D1F8F9
:1033700000E08C681A430260C46240F48062C0F8C6
:1033800028E0624504BF096901630121416110BD64
:10339000806B0021C185C184FEF7F8BC81B090F834
:1033A0003E10222920D18368B3F5805F08D10169DE
:1033B000002964D000F128010A6803685B680AE00C
:1033C000014651F8282F13B90369002BF5D0036883
:1033D0005B6803F07F0313700A6801320A60C18DD5
:1033E00001390A04C18501D001B070470168CA687B
:1033F00022F02002CA60CA6822F48072CA604A6958
:1034000022F001024A61202280F83E20026B012A4C
:103410003ED10022026300BF51E8031F026821F081
:10342000100142E803130168DBB151E8031F026891
:1034300021F0100142E80313016893B151E8031F22
:10344000026821F0100142E8031301684BB151E812
:10345000031F026821F0100142E803130168002BEA
:10346000DAD10A68D20606D5002200920A680092D4
:10347000496800910099818D01B0FEF785BC016813
:10348000826A49686FF35F2122F8021B8262A6E715
:1034900001B0FEF727BF000081628285C28500214E
:1034A0002222016480F83E20026880F83C10D06837
:1034B00040F48070D060506940F001005061D068E5
:1034C00040F020010020D1607047000041F6E0107C
:1034D000C2F20000FEF75CBC41F6B020C2F2000070
:1034E000FEF756BC70470000FEE700002DE9F04FE4
:1034F00081B001EE100A9FED332AB8EEC11AC1EE79
:10350000020A41F6900241F69819C2F20002C2F294
:103510000009D2E90052D9F800404FF47A7B02FB4F
:103520000BF3626A41F6A00AC2F2000AE5FB0B2324
:103530000C46DAE9001741F69808511A73EB0700B8
:103540004FF0000038BF012012F57A7543F10006F4
:103550000028C2F2000820464FF0000704BF1E46B4
:103560001546C8E90056CAE9005684ED020A01F082
:103570002BFA41F69000C2F20000D9F80020D0E901
:103580000001526A01FB0BF1E0FB0B21DAE90003B9
:10359000101A71EB030038BF012712F57A7041F160
:1035A0000003002F04BF0B461046C8E90003CAE918
:1035B0000003401B63EB0601C4E91E0101B0BDE836
:1035C000F08F00BF00007A444EF60C50BFF34F8FCF
:1035D000CEF200000168042201F4E061C0F2FA5268
:1035E00011430160BFF34F8F00BF00BF00BF00BF9A
:1035F000FAE7000080B541F6981341F69000C2F258
:103600000003C2F200001B68D0E900014FF47A7C8D
:103610005B6A01FB0CF2E0FB0C3241F6A00CC2F23B
:10362000000CDCE900014FF0000E181A72EB0100EB
:1036300038BF4FF0010E13F57A7042F10001BEF170
:10364000000F04BF1146184641F69802C2F200026C
:10365000C2E900014FF47A720023CCE90001FCF7C3
:10366000F9FD80BD2DE9F04F81B02DED048B84B0C4
:10367000814600F023FA41F6981641F69008C2F20E
:103680000006C2F200083268D8E900014FF47A75EA
:10369000526A41F6A0046943C2F20004E0FB05212E
:1036A000D4E9000341F6240A101A71EB03004FF02D
:1036B000000038BF012012F57A7741F1000300289D
:1036C00041F69800C2F20000C2F2000A04BF0B46A5
:1036D0001746C0E90073DAF80000CDE90273C4E9C7
:1036E000007300688047DAF8000041F6280780ED93
:1036F000010AC2F2000738680068804738689FED09
:10370000C12A80ED010ADAF800109FEDBF3A91ED71
:10371000020A91ED011A20EE030A21EE024A30EE70
:10372000040A81ED020A90ED020A90ED014A20EEB2
:10373000030A24EE022A30EE020A80ED020A91ED1D
:10374000030A31EE400A81ED040A81ED050A81ED9C
:10375000060A81ED070A81ED080A91ED060AD9F8FB
:10376000000041F29871C2F20001FFF7BFFE41F67E
:103770006840C2F2000000210022B0EE408A01F051
:1037800089FF3068D8E90032476A02FB05F1B44688
:10379000E3FB0571D4E90056C6467D1B71EB0606B6
:1037A0004FF0000638BF012617F57A7B41F100087B
:1037B000002E04BF8846BB4641F69801C2F20001C4
:1037C000C1E900B841F62801C2F200010968C4E964
:1037D00000B891ED011A9FED8D2A9FED8D3A81EE93
:1037E000021A41F22036C2F20006DAF8001038EE72
:1037F000008A21EE031ABDEEC11A11EE107A77800D
:1038000091ED011AD9F8505081EE021A21EE031AF7
:10381000BDEEC11A11EE107AB780CDB141F2203061
:10382000C2F200000621F246654600F00DF9DAE921
:1038300000024FF47A7341F62401A0FB03C6C2F2E2
:1038400000012868D4E90075096802FB036208E0FA
:103850004FF47A76A3FB06C702FB06725F46454625
:10386000F2469FED6C0A9FED6C1AB4EE408AF1EEC1
:1038700010FAB8BFB0EE408AB4EE418A406AF1EE69
:1038800010FAB8BFB0EE481A10EB0C0042F100027B
:10389000C31B72EB05034FF0000338BF012310F583
:1038A0007A7742F10006002B04BF1646074641F620
:1038B0009800C2F20000C0E90076B7EB0B0066EB9F
:1038C0000802C9E9080241F27C70C4E90076C2F23C
:1038D000000091ED078A90ED000A9FED509A31EEBD
:1038E000000A20EE090A00F09BF841F2807099ED81
:1038F0000F0AC2F2000090ED001A28EE000A30EE26
:10390000010A20EE090A00F095F841F6981BC2F270
:10391000000BDBF80020DAE900014FF47A78526AF4
:1039200001FB08F1E0FB0821D4E9000341F298769D
:10393000101A71EB03004FF0000038BF012012F5A0
:103940007A7541F10007002841F69800C2F20000A4
:1039500004BF0F461546C0E9005741F62800C2F2E1
:1039600000000068C4E9005790ED080A41F6240001
:10397000C2F20000006841F66841D0ED080A41F645
:10398000D032C2F20001C2F2000248460023C2F265
:103990000006009600F088F9DBF80020DAE9000163
:1039A000526A01FB08F1E0FB0821D4E9000300267C
:1039B000101A71EB030038BF012612F57A7041F13D
:1039C0000003002E04BF0B46104641F69801C2F2D8
:1039D0000001C1E900030299039A411AC4E90003F6
:1039E00063EB0202401BBB41C9E90A12C9F830006F
:1039F0000020C9F8343004B0BDEC048B01B0BDE840
:103A0000F08F00BF6F12833A77BE7F3F333353404E
:103A1000000080456666E6BF6666E63F00007A44C1
:103A200080B510EE100AFCF789FEBDE88040FDF776
:103A300087B8000080B510EE100AFCF77FFEBDE8E5
:103A40008040FDF7DDB8000046F25802C4F20202E1
:103A5000D06044F60400C4F20000906050684FF655
:103A6000FF7398430843506044F61400C4F200000A
:103A700050E8001F41F0800140E80013ABB150E86E
:103A8000001F41F0800140E8001373B150E8001FAF
:103A900041F0800140E800133BB150E8001F41F0C5
:103AA000800140E80013002BE2D14FF0006042F8A3
:103AB000500C106840F00100106070472DE9F04F85
:103AC00081B041F69001C2F20001D1E9003741F620
:103AD0009811C2F20001D1F800904FF47A7ED9F823
:103AE0002450834641F6A00007FB0EF4C2F200000A
:103AF000A3FB0E8CE3FB0E54D0E9003607FB0ECE81
:103B0000EB1A74EB06034FF0000338BF012315F5E1
:103B10007A7A44F10000002B04BF2046AA46DBE974
:103B20000453DBF84860A5EB0A073744CBF84C7028
:103B300057460446009000BFD9F82410002011EB2E
:103B400008014EF10002CF1B72EB040738BF0120C1
:103B500011F57A7742F10004002804BF14460F469D
:103B6000781B64EB0301801B71EBE670E4D3D9F89A
:103B7000240010EB08004EF10001C21B71EB04029F
:103B80004FF0000238BF012210F57A7341F10006B0
:103B9000002A04BF0E46034641F69800C2F2000018
:103BA000C0E9003641F6A0005D1B0024C2F200000F
:103BB000B5F1FF3FC0E90036CBE90236CBF8005043
:103BC00002DD1F46B4461EE030A003F049FF41F677
:103BD0009000C2F2000041F69813D0E90001C2F251
:103BE00000034FF47A72D3F8009041F6A003A0FBD3
:103BF0000280C2F20003DBF80050DBE9027CD3E96B
:103C0000003601FB020E00EE105A9FED241AB8EEAA
:103C1000C00A81EE000A9FED221A9BED0E2ACBF816
:103C20001070CBF814C020EE010A9FED1E1A22EE90
:103C3000011A31EE000A8BED0E0AD9F8240010EBC0
:103C400008004EF10001C21A71EB060238BF0124D0
:103C500010F57A7241F10003002C04BF0B460246B6
:103C600041F69800C2F20000C0E9002341F6A0002E
:103C7000C2F200000099C0E90023B2EB0A0063EB36
:103C80000101CBE9060101B0BDE8F08F4552524F6A
:103C900052206F6E207469636B0D000000007A443F
:103CA0000AD7233CA4707D3F2DE9F04114461268E9
:103CB000002A00F03B81DDF818800D460646FFF72C
:103CC00099FC0A2200230027FCF7C4FAFCF714FD34
:103CD00000EE100A94ED141AD4F88C0030EE410A6C
:103CE00084ED150A78B141F62400AF61C2F20000FC
:103CF0000068FCF70DFF41F62800C2F200000068E2
:103D0000FCF706FF2BE094ED162A9FED8A1A22EEAF
:103D1000011AB4EE410AF1EE10FA0FDBB4EE420ADA
:103D2000F1EE10FA1BDD9FED843A22EE032AB4EE89
:103D3000420AF1EE10FA12DA32EE400A80EE010A7F
:103D4000E06C41F2283100EB4000C2F2000101EBCF
:103D5000C00090ED011A20EE010A85ED040A6068AA
:103D600058B348F2E2300027C0F60100376501F091
:103D700069F90120C4F88C0028460121676001F030
:103D800081FCE764C4E91C77C4E90677C4E90877D5
:103D9000FFF730FC0A220023FCF75CFAFCF7ACFCCE
:103DA00020654FF07E5068600020C4F2FA302F6129
:103DB000A065BDE8F041FFF70FBAD4F88C0094ED90
:103DC000150A94ED161A002800F0908000209FED4F
:103DD0005A2A306521EE021AB4EE410AF1EE10FAC9
:103DE000D8BFBDE8F0810020C4E91C00C4E9200070
:103DF000C4E90600C4E90800FFF7FCFB0A2200231F
:103E0000FCF728FAFCF778FCD4F88C10206511B97F
:103E10004AA003F025FEE66CFFF7F2F9013886426E
:103E200042DAD4F88C10E06C002904BF0130E06461
:103E300041F2283600EB4000C2F2000656F830008E
:103E4000686095ED010A40F22070C2F2000002F0B5
:103E5000ABFE41F62C01C2F20001086095ED010AAB
:103E600040F62050C2F2000002F09EFE41F6300102
:103E7000C2F20001086095ED010A9FED4A1AE06C5C
:103E800081EE000A9FED481A00EB400030EE010A77
:103E900084ED160A56F83000FCF7C5FC024643A034
:103EA0000B4602F00BFF3EE02BA003F0D9FD0120F2
:103EB000606028460021002501F0E4FB206E18B95F
:103EC000D4F89000256098BB606E60B398ED0F0A3F
:103ED0009FED311AB4EE410AF1EE10FA18DA9FEDB7
:103EE000301A30EE010A88ED0F0A1CE09FED112A0E
:103EF00021EE022AB4EE420AF1EE10FA7FF766AF25
:103F0000B4EE410AF1EE10FABFF660AF01205EE7B1
:103F100098ED110A9FED211A002030EE010AC8F831
:103F20003C0088ED110A0020C4F88C00BDE8F08147
:103F3000FFF74AFBCDCC4C3E9A99993F0D0A606041
:103F4000600D0A7665723D312C63746C3D656E645C
:103F50000D0A6060600D00003D3D3D3D3D3D3D3D35
:103F60003D3D3D3D3D3D3D3D3D3D3D3D3D3D206576
:103F70006E642073656C662074657374203D3D3DEE
:103F80003D3D3D3D3D3D3D3D3D3D3D3D3D3D3D3D61
:103F90003D3D3D0D00000000CDCCCC3D0AD7A33BFC
:103FA0000AD7233C000096430000FA440D0A6060E3
:103FB000600D0A7665723D312C667265713D25662D
:103FC0000D0A6060600D0A0044F60001C4F20001B1
:103FD0000A68120609D40A6812065CBF0A685FEA1A
:103FE000026202D40A681206F2D5C2B24A60704771
:103FF0002DE9F04F81B02DED028BADF5876D48F2C4
:104000002431C0F600016AA84FF4C872FCF753F9D6
:1040100006A84FF4C871FCF775F945F2483BC0F6A5
:10402000010BDBF80800002861D0012800F001082E
:1040300040F0F2830026B8F1000F58D0DBF80C00F6
:1040400050F82640D4E90001484301284FDB002600
:10405000E068292150F8265005F10C00FCF752F9D0
:1040600005F138002921FCF74DF9D4E90001721C53
:10407000484382423BDAE068292100EB860045682C
:1040800005F10C00FCF73EF905F138002921FCF799
:1040900039F9D4E90001B21C4843824227DAE068CA
:1040A000292100EB8600856805F10C00FCF72AF950
:1040B00005F138002921FCF725F9D4E90001F21CAB
:1040C0004843824213DAE068292100EB8600C56884
:1040D00005F10C00FCF716F905F138002921FCF771
:1040E00011F9D4E90001043648438642B0DB0024CC
:1040F00001F082F80DF54E79CDE9011005E000BF21
:10410000049C01340A2C00F08A8141F61801C2F2A5
:104110000001086801300860DBF808A00494BAF1D7
:10412000000F63D0BAF1010F40F0B08000271AF001
:10413000010059D0DBF80C0050F82740D4E9000109
:104140004843012850DB0026E068292150F826501A
:1041500005F10C00FCF7D6F805F138002921FCF731
:10416000D1F8D4E90001721C484382423CDAE0688D
:10417000292100EB8600456805F10C00FCF7C2F828
:1041800005F138002921FCF7BDF8D4E90001B21C83
:104190004843824228DAE068292100EB86008568DE
:1041A00005F10C00FCF7AEF805F138002921FCF709
:1041B000A9F8D4E90001F21C4843824214DAE0680D
:1041C000292100EB8600C56805F10C00FCF79AF880
:1041D00005F138002921FCF795F8D4E900010436EF
:1041E00048438642B0DB00BF4FF0010A4FF00008A1
:1041F0006AA8BAF1000F00EB88014FF0000515D056
:104200004F4600BFDBF80C003A4650F82500FEF799
:104210001BFC013505F00100DBF8081009EBC016A6
:104220008D4239463746EDD301E000BF4E46DBF8FC
:10423000000008B306A800EB88070024DBF80400A0
:10424000324650F824000023FEF784FDDBF800001E
:104250006A1C811E02EBD27323F001038C423146AB
:104260003E4604F10104A2EB030338BF154638BFF4
:1042700009EBC3168442E1D308F10108B8F1640FD9
:104280003FF43EAFDBF808A0B2E700BF2AF0010020
:104290000027059005E000BF0598023787423FF4EC
:1042A00046AFDBF80C0050F82780D8E900014843FE
:1042B000012855DB002400BFD8F80C00292150F854
:1042C000245005F10C00FCF71DF805F138002921F8
:1042D000FCF718F8D8E90001621C484382423FDA33
:1042E000D8F80C00292100EB8400456805F10C008A
:1042F000FCF708F805F138002921FCF703F8D8E9A4
:104300000001A21C484382422ADAD8F80C00292175
:1043100000EB8400856805F10C00FBF7F3FF05F165
:1043200038002921FBF7EEFFD8E90001E21C4843E1
:10433000824215DAD8F80C00292100EB8400C56808
:1043400005F10C00FBF7DEFF05F138002921FBF732
:10435000D9FFD8E90001043448438442ACDB00BFF4
:10436000DBF80C0047F0010150F82140D4E90001CE
:104370004843012890DB0026E068292150F82650A8
:1043800005F10C00FBF7BEFF05F138002921FBF712
:10439000B9FFD4E90001721C48438242BFF67CAFEA
:1043A000E068292100EB8600456805F10C00FBF769
:1043B000A9FF05F138002921FBF7A4FFD4E900018A
:1043C000B21C48438242BFF667AFE068292100EB88
:1043D0008600856805F10C00FBF794FF05F13800B5
:1043E0002921FBF78FFFD4E90001F21C48438242E8
:1043F000BFF652AFE068292100EB8600C56805F1E1
:104400000C00FBF77FFF05F138002921FBF77AFF4D
:10441000D4E90001043648438642ADDB3CE700F0B6
:10442000EBFE804606A80F46051F64240FF26C566B
:10443000039500BF55F8040FFCF7F5F90246304626
:104440000B4602F03BFC013CF4D102980199B8EB19
:10445000000067EB0101FCF74FF99FED738A00EE56
:10446000100A80EE080A10EE100AFCF7DCF902468A
:1044700048F22D400B46C0F601004FF47A7102F06D
:104480001DFC002400F0B8FECDE9011005E000BFDE
:10449000049C01340A2C00F08C8141F61801C2F210
:1044A0000001086801300860DBF808A00494BAF144
:1044B000000F63D0BAF1010F40F0B08000271AF06E
:1044C000010059D0DBF80C0050F82740D4E9000176
:1044D0004843012850DB0026E068292150F8265087
:1044E00005F10C00FBF70EFF05F138002921FBF761
:1044F00009FFD4E90001721C484382423CDAE068BB
:10450000292100EB8600456805F10C00FBF7FAFE57
:1045100005F138002921FBF7F5FED4E90001B21CB2
:104520004843824228DAE068292100EB860085684A
:1045300005F10C00FBF7E6FE05F138002921FBF739
:10454000E1FED4E90001F21C4843824214DAE0683B
:10455000292100EB8600C56805F10C00FBF7D2FEAF
:1045600005F138002921FBF7CDFED4E9000104361E
:1045700048438642B0DB00BF4FF0010A4FF000080D
:104580006AA8BAF1000F00EB88014FF0000515D0C2
:104590004F4600BFDBF80C003A4650F82500FEF706
:1045A00053FA013505F00100DBF8081009EBC016DD
:1045B0008D4239463746EDD301E000BF4E46DBF869
:1045C000000008B306A800EB88070024DBF804000D
:1045D000324650F824000123FEF7BCFBDBF8000054
:1045E0006A1C811E02EBD27323F001038C42314618
:1045F0003E4604F10104A2EB030338BF154638BF61
:1046000009EBC3168442E1D308F10108B8F1640F45
:104610003FF43EAFDBF808A0B2E700BF2AF001008C
:104620000027059007E000BF00007A440598023794
:1046300087423FF444AFDBF80C0050F82780D8E9FC
:1046400000014843012855DB002400BFD8F80C00C6
:10465000292150F8245005F10C00FBF753FE05F119
:1046600038002921FBF74EFED8E90001621C4843BF
:1046700082423FDAD8F80C00292100EB840045681B
:1046800005F10C00FBF73EFE05F138002921FBF790
:1046900039FED8E90001A21C484382422ADAD8F840
:1046A0000C00292100EB8400856805F10C00FBF764
:1046B00029FE05F138002921FBF724FED8E9000185
:1046C000E21C4843824215DAD8F80C00292100EB9D
:1046D0008400C56805F10C00FBF714FE05F13800F5
:1046E0002921FBF70FFED8E9000104344843844236
:1046F000ACDB00BFDBF80C0047F0010150F82140B3
:10470000D4E900014843012890DB0026E068292114
:1047100050F8265005F10C00FBF7F4FD05F13800C8
:104720002921FBF7EFFDD4E90001721C48438242C6
:10473000BFF67CAFE068292100EB8600456805F1F3
:104740000C00FBF7DFFD05F138002921FBF7DAFD4E
:10475000D4E90001B21C48438242BFF667AFE0686B
:10476000292100EB8600856805F10C00FBF7CAFDE6
:1047700005F138002921FBF7C5FDD4E90001F21C41
:1047800048438242BFF652AFE068292100EB860021
:10479000C56805F10C00FBF7B5FD05F138002921CE
:1047A000FBF7B0FDD4E90001043648438642ADDB97
:1047B0003CE700F021FD039D0746884664247DA662
:1047C00055F8040FFCF72FF8024630460B4602F06E
:1047D00075FA013CF4D102980199381A68EB01018D
:1047E000FBF78AFF00EE100A80EE080A10EE100AAE
:1047F000FCF719F8024648F22D400B46C0F60100BE
:104800004FF47A7102F05AFA00200DF5876DBDEC75
:10481000028B01B0BDE8F08F20F00109002603E013
:1048200002364E453FF407ACDBF80C0050F826404A
:10483000D4E900014843012850DB0027E068292122
:1048400050F8275005F10C00FBF75CFD05F138002E
:104850002921FBF757FDD4E900017A1C4843824225
:104860003CDAE068292100EB8700456805F10C007F
:10487000FBF748FD05F138002921FBF743FDD4E99A
:104880000001BA1C4843824228DAE068292100EB83
:104890008700856805F10C00FBF734FD05F1380051
:1048A0002921FBF72FFDD4E90001FA1C484382427D
:1048B00014DAE068292100EB8700C56805F10C00D7
:1048C000FBF720FD05F138002921FBF71BFDD4E99A
:1048D0000001043748438742B0DB00BFDBF80C001F
:1048E00046F0010150F82140D4E900014843012875
:1048F00096DB0027E068292150F8275005F10C00CD
:10490000FBF700FD05F138002921FBF7FBFCD4E99A
:1049100000017A1C48438242BFF682AFE068292139
:1049200000EB8700456805F10C00FBF7EBFC05F197
:1049300038002921FBF7E6FCD4E90001BA1C484302
:104940008242BFF66DAFE068292100EB87008568E1
:1049500005F10C00FBF7D6FC05F138002921FBF727
:10496000D1FCD4E90001FA1C48438242BFF658AF9B
:10497000E068292100EB8700C56805F10C00FBF712
:10498000C1FC05F138002921FBF7BCFCD4E900018A
:10499000043748438742ADDB42E700BF4652494BEC
:1049A000414E286E6F206C7574293A2025660D0AD9
:1049B000000000004652494B414E286C7574293A5C
:1049C0002025660D0A00000010B504460068012885
:1049D00041D194ED102A94ED191A9FED224AB4EEBC
:1049E000412AF1EE10FA0CBF94ED083A9FED1C3A03
:1049F00094ED011A84ED020A31EE401A81EE044A68
:104A000084ED192A84ED061A24EE200A30EE030AFA
:104A100084ED080AB0EE410A00F050FA94ED062A3F
:104A200094ED083A94ED0F4A94ED105A94ED116A02
:104A300023EE053A24EE022A84ED0E0A94ED1C1AA8
:104A400032EE032A26EE000A30EE020A21EE000AB8
:104A500084ED1A0A10BD9FED020A84ED1A0A10BDFA
:104A60000000000000007A442DE9F04F81B02DEDE8
:104A7000108BDEB045F6486545F6C87645F6C84465
:104A80002BAFC0F60105C0F60106C0F6010438469A
:104A9000C0215B955C965D94FBF734FC45F2583081
:104AA000C0F60100D0E90012D0E90203CDE92712D7
:104AB000CDE9290300F0A0FB41F61C0845F2C839F6
:104AC00045F2683ACDE9031007F160000027C2F211
:104AD0000008C0F60109C0F6010A0DF13C0B059073
:104AE000D8F8000033460130C8F800002BA8059E16
:104AF000019027A801212A460094029600F07EFB2F
:104B00009DED350ADDED2CCA8DED0E0A9DED360AC0
:104B1000DDED2DDA8DED0D0A9DED370ADDED2EEA86
:104B20008DED0C0A9DED380ADDED2FFA8DED0B0AA7
:104B30009DED390A9DED309A8DED0A0A9DED3A0AF8
:104B40009DED31AA8DED090A9DED3B0A9DED328A5E
:104B50008DED080A9DED3C0A9DED33BA8DED070AF7
:104B60009DED2B0A9DED34CA9DED3DDA9DED3EEAAB
:104B70009DED3FFADDED408ADDED419ADDED42AA83
:104B800000258DED060A00BF09EB050090ED000A37
:104B90009DED062A90ED181A22EE000A90ED302ABB
:104BA0002CEE811A31EE000A2DEE821A90ED482A81
:104BB00031EE000A2EEE821A90ED602A31EE000AE4
:104BC0002FEE821A90ED782A31EE000A29EE021AB1
:104BD00090ED902A31EE000A2AEE021A90EDA82AF2
:104BE00031EE000A28EE021A90EDC02A31EE000ADA
:104BF0002BEE021A90EDD82A31EE000A2CEE021AA2
:104C000090EDF02A31EE000A9DED0E1A00F5846158
:104C100021EE021A91ED002A31EE000A9DED0D1AE7
:104C200000F5906121EE021A91ED002A31EE000AA2
:104C30009DED0C1A00F59C6121EE021A91ED002AFF
:104C400031EE000A9DED0B1A00F5A86121EE021A63
:104C500091ED002A31EE000A9DED0A1A00F5B461CB
:104C600021EE021A91ED002A31EE000A9DED091A9B
:104C700000F5C06121EE021A91ED002A31EE000A22
:104C80009DED081A00F5CC6121EE021A91ED002A83
:104C900031EE000A9DED071A00F5D86121EE021AE7
:104CA00091ED002A00F5E46131EE000A2DEE021AC2
:104CB00091ED002A00F5F06131EE000A2EEE021AA5
:104CC00091ED002A00F5FC6131EE000A2FEE021A88
:104CD00091ED002A00F5046131EE000A28EE821AF7
:104CE00091ED002A00F50A6031EE000A29EE821AE1
:104CF00090ED002A0AEB050031EE000A2AEE821A36
:104D000090ED002A31EE000A70EE02BAB1EE6B0AA5
:104D100002F040F8B7EE001A30EE010A8BEE800A7E
:104D20000BEB05000435602D80ED000A7FF42CAFFD
:104D30009DED0F0A9FED211A20EE010A9FED201A2A
:104D400030EE018AB1EE480A02F024F80137B7F5D7
:104D50007A7F03D0DDE95B565D9CC1E6B7EE001AB1
:104D600030EE010A88EE008A00F046FA049A801AB2
:104D7000039A9141FBF7C0FC9FED120A01EE100A65
:104D800018EE100A81EE009AFBF74DFD02460EA0C8
:104D90000B4601F093FF19EE100AFBF744FD0246A3
:104DA0000B460DA04FF47A7101F088FF00205EB031
:104DB000BDEC108B01B0BDE8F08F00BFEDB6B0BC0C
:104DC0003E4D983A00007A444C53544D206F757410
:104DD0003A2025660D0A00004C53544D2054696D4D
:104DE000652074616B656E2025642074696D657340
:104DF0003A202566207365636F6E64730D0A0000A8
:104E000092B0FCF7C3F9002443F64000CDE90A4410
:104E1000CDE908440194C4F202000168022541F082
:104E200080510160006800F080500190019847F2C5
:104E300000000194C4F20000016841F48041016067
:104E40000068A82100F4804001900198012006909C
:104E50004FF4803007904FF480000D9004200E90A6
:104E6000119006A80C95CDE90F15FCF721FB0F203A
:104E7000CDE901054FF4A05004904FF48050059007
:104E800001A805210394FCF72DFAFEF771F8FEF74F
:104E9000D9F841F69810C2F20000FCF783FDFEF746
:104EA0000BF948F2C830C0F6010002F0D9FDFFF757
:104EB000DBFDFFF79DF800BFFEE70000B0B52DED6C
:104EC000108B41F27870C2F2000090ED001A9FED55
:104ED00059BA41F6CC3541F6C83441F6A800C2F2C1
:104EE0000005C2F2000421EE0BFAC2F2000094EDBC
:104EF000001A95ED00CA80ED00FA41F2847031EE9F
:104F0000400AC2F200002FEE0C1A90ED00DA31EEEA
:104F1000008AB2EE000AB1EE481AB5EE408A2FEED2
:104F20000DEA2DEE000AF1EE10FAC8BFB0EE481AF5
:104F300020EE010A2EEE0E1A31EE000A9FED3EAA77
:104F4000B5EE400AF1EE10FAB0EE4A9A06DBB1EE89
:104F5000C09AB4EE499AF1EE10FA5ED6B5EE408AE8
:104F6000F1EE10FA6FEE0E8A06DBB1EEC8AAB4EECF
:104F70004AAAF1EE10FA55D6B4EE68AAF1EE10FA8C
:104F800015DD39EE4E0AB6EE001A20EE010AB7EE34
:104F9000002AB5EE408ABFEE001AF1EE10FAB8BF53
:104FA000B0EE412A20EE020A30EE0C0A03E088EE51
:104FB0000F0A3CEE000AB1EE402AB5EE400A2DEE93
:104FC000401AF1EE10FAC8BFB0EE402AB1EE4D0A19
:104FD00081EE0E1AB8BFB0EE4D0AB4EE4E2AF1EED5
:104FE00010FAC8BFB0EE401A21EE0B0A40F21000D2
:104FF00030EE0C0A94ED001AC2F2000020EE0B2AEB
:1050000090ED003A32EE011A85ED000A23EE000A17
:1050100084ED001ABDEC108BB0BD01F0B1FFB0EE15
:10502000409A9BE7B0EE480A01F0AAFFB0EE40AA12
:10503000A2E700BFBAC05C380000000001F07CBEEF
:1050400002F02EB883B080B581B00DF10C0C8CE865
:105050000E0003A9009100F03FF801B0BDE88040C8
:1050600003B0704740F20001C2F2000102F0F6BC4A
:1050700002F008BD01F032BE70B582B004464FF4B4
:1050800080700D460192FFF7DBFF206000B3019BAB
:1050900020684FF480712A460093FFF7EBFFB0F5CC
:1050A000807F10DB4FF48076206876003146FFF772
:1050B000DFFF50B1019B31462A4620600093FFF785
:1050C000D9FFB042F0DA02B070BD2068FFF7B6FF3A
:1050D0004FF0FF3002B070BD2DE9F04182B00C46B8
:1050E000054604E0002957D0012108440130017829
:1050F000252901D031B94FE010F8011F732901D0E3
:10510000252924D14178252904D0002944D0012122
:1051100006E000BF82780221732A01D0252A16D129
:10512000084410F8011F252902D039B934E000BF26
:1051300010F8011F732901D0252908D141782529AC
:10514000D0D182780221732ACFD0252ACDD0002059
:10515000019001A829462246FFF78EFF002845D47A
:10516000019C207888B1FFF77DFF2046FBF7D5F83A
:1051700002280AD3012500BF605DFFF773FF2046B8
:105180000135FBF7CAF88542F6D32046FFF756FFF4
:10519000002002B0BDE8F08148F22648C0F60108C0
:1051A00001E000BF01352878252801D0D0B9EFE70C
:1051B00015F8011F252915D07329F3D154F8047B64
:1051C000002F08BF47463846FBF7A7F80128E9DB60
:1051D0000646013F17F8010FFFF744FF013EF9D1E2
:1051E000E0E700BFFFF73EFF0135DCE74FF0FF309F
:1051F00002B0BDE8F0810000FEF7FCB92DE9F04FE8
:1052000081B02DED0C8BB6B09046012903930A4670
:1052100002910190C0F22F82DDF830A11EA89FED0F
:1052200003CA2C300021059002E000BF00000000FE
:105230000198049100EB810B4D991EA86022FBF7A9
:105240003AF84E9906A86022FBF735F8039C4FF018
:10525000000900BF09F1300108EB890309F11802C8
:1052600008EB810609F1480008EB820708EB80058E
:105270009BED000A93ED001A96ED005A97ED004A57
:1052800095ED003A059F20EE012A20EE051A002335
:10529000B0EE4C5AB0EE4C6AB0EE4C7AF0EE4C0ADE
:1052A000E61857ED0B1AD6ED002AD6ED183AD6EDD2
:1052B000304A61EEA22A72EEA00A61EEA32AD6ED70
:1052C000485A32EE877A61EEA42A32EE866A57EDAA
:1052D0000A2AD6ED603A61EEA51A31EE855A62EEE1
:1052E000A31AD6ED783A71EEA00A62EEA31AD6EDB3
:1052F000903A31EE877A62EEA31AD6EDA83A31EEF3
:10530000866A62EEA31A57ED092AD6EDC03A31EE4D
:10531000855A62EEA31AD6EDD83A71EEA00A62EE73
:10532000A31AD6EDF03A06F5846531EE877A62EE7F
:10533000A31AD5ED003A06F5906531EE866A62EE65
:10534000A31A57ED082AD5ED003A06F59C6531EE13
:10535000855A62EEA31AD5ED003A06F5A86571EEFE
:10536000A00A62EEA31AD5ED003A06F5B46531EE57
:10537000877A62EEA31AD5ED003A06F5C06531EEE4
:10538000866A62EEA31A57ED072AD5ED003A06F5B4
:10539000CC6531EE855A62EEA31AD5ED003A06F5DA
:1053A000D86571EEA00A62EEA31AD5ED003A06F5B3
:1053B000E46531EE877A62EEA31AD5ED003A06F580
:1053C000F06531EE866A62EEA31A57ED062AD5ED36
:1053D000003A06F5FC6531EE855A62EEA31AD5ED6A
:1053E000003A06F5046571EEA00A62EEA31AD5ED47
:1053F000003A06F50A6531EE877A62EEA31AD5ED1A
:10540000003A06F5106531EE866A62EEA31A57ED92
:10541000052AD5ED003A06F5166531EE855A62EE9D
:10542000A31AD5ED003A06F51C6571EEA00A62EEEE
:10543000A31AD5ED003A06F5226531EE877A62EEC1
:10544000A31AD5ED003A06F5286531EE866A62EEBC
:10545000A31A57ED042AD5ED003A06F52E6531EE74
:10546000855A62EEA31AD5ED003A06F5346571EE61
:10547000A00A62EEA31AD5ED003A06F53A6531EEC0
:10548000877A62EEA31AD5ED003A31EE866A62EEB3
:10549000A31A06F5406531EE855A57ED031AD5ED8E
:1054A000003A06F54665D5ED005A61EEA33A06F5D9
:1054B0004C6573EEA00A61EEA53AD5ED005A33EEC5
:1054C000877A61EEA53A06F5526533EE866AD5ED28
:1054D000003A06F5586557ED022A61EEA31AD5ED9C
:1054E000003A06F55E6531EE855A62EEA31AD5EDF7
:1054F000003A06F5646571EEA00A62EEA31AD5EDD6
:10550000003A06F56A6531EE877A62EEA31AD5EDA8
:10551000003A06F5706557ED014A31EE866A62EE93
:10552000A31AD5ED002A06F5766531EE855A64EEAC
:10553000A21AD5ED002A06F57C6571EEA00A64EE8C
:10554000A21AD5ED002A06F5815531EE877A64EE70
:10555000A21AD5ED002A06F58455D7ED005A31EE92
:10556000866A64EEA21AD5ED002A06F5875531EE5B
:10557000855A65EEA21AD5ED002A06F58A5571EE18
:10558000A00A65EEA21AD5ED002A06F58D5631EE79
:10559000877A65EEA21AD6ED002A31EE866A65EEAC
:1055A000A21A03F5905331EE855AB3F5105F07F157
:1055B00030077FF475AE0AEB8903D3ED001A0AEBCE
:1055C000820220EE044A20EE033A30EEA10AD2ED28
:1055D000000A0AEB810132EE000A37EE202A91ED33
:1055E000007A0AEB800034EE028A90ED004A36EE33
:1055F000072A31EE029A35EE041A33EE01AA01F0C1
:10560000DDFCB0EE40BAB0EE480A01F0D7FC06A8C7
:1056100000EB890090ED00DAB0EE408AB0EE490A66
:1056200001F0CCFC2BEE000A28EE0D1A31EE008AB8
:10563000B0EE4A0A01F0C2FCB0EE409AB0EE480A61
:1056400001F0BCFC4D9829EE000A00EB890080EDCA
:10565000000A4E98043400EB890009F10109B9F100
:10566000180F80ED008A7FF4F5AD0499029801319E
:1056700081427FF4DDAD36B0BDEC0C8B01B0BDE8EE
:10568000F08F000002460846116000F001B80000EB
:10569000704700002DE9F04F81B02DED048B0446DA
:1056A000D0E90A0141F6A007013041F10001C4E947
:1056B0000A0141F69811C2F2000141F690000A6811
:1056C000C2F20000C2F20007D0E90013506AD7E925
:1056D000005E94ED010AB7EE001A81EE000A9FED1C
:1056E0005B1A4FF47A76BC4603FB06F73B46E1FBB8
:1056F00006039FED578A4FF0000984ED020A94EDEE
:10570000020A81EE000A84ED030A526AE1FB0627D1
:10571000411B73EB0E014FF0000138BF012110F562
:105720007A7B43F1000A002904BF9A468346B2EB14
:105730000B0077EB0A004FF0000038BF012012F594
:105740007A7547F10006002841F69800C2F2000081
:1057500004BF15463E46C0E90056CCE9005694ED1C
:10576000010A88EE000A10EE100AFBF708F8074657
:10577000884628463146FAF7BFFF41F6D031C2F2DB
:10578000000191ED140A01EE100A31EE400A10EE0C
:10579000100AFAF7F4FF3A464346FAF75BFD104663
:1057A00094ED039A1946FAF7A7FF00EE100A29EEC6
:1057B000000A80EE080A94ED048AFAF701FD28EE4B
:1057C000000A84ED060AA06941F69812606141F66C
:1057D0009000C2F20002C2F200001268D0E900019B
:1057E0004FF47A73526A41F6A0075943C2F2000798
:1057F000E0FB0321D7E90003101A71EB030038BF67
:105800004FF0010912F57A7041F10003B9F1000F70
:1058100004BF0B46104641F69801C2F20001C1E9EF
:105820000003C7E90003B0EB0B0063EB0A01C4E916
:1058300008012068002814BF94ED050A9FED050AB1
:10584000BDEC048B01B0BDE8F08F00BFDA0FC9409A
:1058500000247449000000002DE9F04F81B02DEDC7
:10586000068B82B00D46044610200121FAF75CFD3C
:105870000646456005EB850000010121FAF754FD5D
:10588000012D30606FDB9FED3C0B834650EC10AB7D
:105890009FED3B0B009604F1280657EC104B4FF0A0
:1058A0000008019016ED040B019B51EC100B5246C1
:1058B000FAF706FF00284CD016ED0A0B224651ECF1
:1058C000100B3B46FAF7E5FDFAF788FF0BEB0809EA
:1058D00016ED080B4BF80800C9F8041000204FF42F
:1058E000803116ED02AB96ED008B16ED069BC9E9F3
:1058F000060151EC100B22463B46FAF7CAFDFAF7B7
:105900006DFFC9E9020151EC1A0B22463B46FAF73A
:10591000C0FDFAF763FFC9E9080151EC190B2246F3
:105920003B46FAF7B6FDFAF759FFC9E9040151EC15
:10593000180B22463B46FAF7ACFDFAF74FFF08F189
:105940005008013D06F13006C9E90A01AAD1009EBE
:1059500009E00DA002F084F8584601F0EDF9009836
:1059600001F0EAF90026304602B0BDEC068B01B02A
:10597000BDE8F08F00BF00BF000000000000F03F56
:10598000000000000000F0424572726F723A206120
:105990005B305D206973206E6F7420657175616C7A
:1059A00020746F203121000010B598B048F2B84142
:1059B0006C46C0F6000120466022FAF77CFC2046C7
:1059C0000221FFF749FF18B010BD000010B598B0D4
:1059D00048F218516C46C0F6000120466022FAF7E2
:1059E0006AFC20460221FFF737FF18B010BD000007
:1059F00010B598B048F278516C46C0F600012046C8
:105A00006022FAF758FC20460221FFF725FF18B064
:105A100010BD000010B598B048F2D8516C46C0F6E1
:105A2000000120466022FAF746FC20460221FFF7DB
:105A300013FF18B010BD000010B598B048F23861DF
:105A40006C46C0F6000120466022FAF734FC20467E
:105A50000221FFF701FF18B010BD000010B598B08B
:105A600048F298616C46C0F6000120466022FAF7C1
:105A700022FC20460221FFF7EFFE18B010BD000007
:105A800010B598B048F2F8616C46C0F600012046A7
:105A90006022FAF710FC20460221FFF7DDFE18B065
:105AA00010BD000010B598B048F258716C46C0F6B1
:105AB000000120466022FAF7FEFB20460221FFF794
:105AC000CBFE18B010BD000010B598B048F2B87108
:105AD0006C46C0F6000120466022FAF7ECFB204637
